:020000040800F2
:10000000A807002439030008293A00082928000815
:10001000213A000841040008A9400008000000003F
:10002000000000000000000000000000C93E0008C1
:100030004904000800000000613A0008013F000880
:100040005303000853030008530300085303000838
:100050005303000853030008530300085303000828
:100060005303000853030008530300085303000818
:100070005303000853030008530300085303000808
:1000800053030008530300085303000853030008F8
:1000900053030008530300085303000853030008E8
:1000A00053030008530300085303000853030008D8
:1000B00053030008530300085303000853030008C8
:1000C00053030008530300085303000853030008B8
:1000D00053030008530300085303000853030008A8
:1000E00053030008530300080000000053030008F6
:1000F0005303000853030008530300085303000888
:10010000530300085303000853030008A93C0008E8
:100110005303000853030008530300085303000867
:100120005303000853030008530300085303000857
:100130005303000853030008530300085303000847
:1001400000000000000000000000000000000000AF
:100150005303000853030008530300085303000827
:100160004128000831280008530300085303000801
:100170005303000853030008530300080000000065
:1001800053030008530300085303000853030008F7
:1001900053030008530300085303000853030008E7
:1001A00053030008530300085303000853030008D7
:1001B00053030008530300085303000853030008C7
:1001C00053030008530300085303000853030008B7
:1001D00053030008530300085303000853030008A7
:1001E0005303000853030008530300085303000897
:1001F0005303000853030008530300085303000887
:100200005303000853030008530300085303000876
:100210005303000853030008530300085303000866
:1002200053030008530300085303000800000000B4
:1002300053030008530300080000000053030008A4
:100240005303000853030008530300085303000836
:100250005303000853030008530300085303000826
:100260005303000853030008530300085303000816
:100270005303000853030008530300080000000064
:100280005303000853030008530300080000000054
:10029000000000005303000800F002F800F03CF8F2
:1002A0000AA090E8000C82448344AAF10107DA45D1
:1002B00001D100F031F8AFF2090EBAE80F0013F0E7
:1002C000010F18BFFB1A43F00103184780430000D9
:1002D000A0430000103A24BF78C878C1FAD852076A
:1002E00024BF30C830C144BF04680C6070470000B0
:1002F0000023002400250026103A28BF78C1FBD82F
:10030000520728BF30C148BF0B6070471FB504F0CB
:1003100087F91FBD10B510BD00F058F81146FFF762
:10032000F5FF04F025F900F076F803B4FFF7F2FFCB
:1003300003BC00F07DF800000948804709480047E9
:10034000FEE7FEE7FEE7FEE7FEE7FEE7FEE7FEE785
:10035000FEE7FEE704480549054A064B70470000E2
:10036000C93F000899020008A8010024A80700243A
:10037000A8030024A80300244FF0000200B5134690
:1003800094469646203922BFA0E80C50A0E80C50B5
:10039000B1F12001BFF4F7AF090728BFA0E80C5066
:1003A00048BF0CC05DF804EB890028BF40F8042B5F
:1003B00008BF704748BF20F8022B11F0804F18BFCC
:1003C00000F8012B7047704770477047754600F082
:1003D0002BF8AE4605006946534620F007008546D7
:1003E00018B020B5FFF7B6FFBDE820404FF000067B
:1003F0004FF000074FF000084FF0000BAC46ACE8A0
:10040000C009ACE8C009ACE8C009ACE8C00921F0FB
:1004100007018D46704710B50446AFF300802046B3
:10042000BDE81040FFF781BF00487047100000246E
:1004300001491820ABBEFEE726000200704700000D
:10044000FEE7000000000000704700000000000010
:10045000EFF3108072B600BFFEE70000000000005E
:1004600080B5D8B190F83510022919D140F20F4269
:100470000168C4F20202914216DC6F23C4F2020347
:10048000994226DC3F23C4F2020399423CDC10234C
:10049000C4F2020399425AD0282354E0012080BDBF
:1004A00080214165012080BD40F26F43C4F2020308
:1004B00099421ADC40F23F43C4F2020399422ADC1B
:1004C00040F21043C4F20203994240D040F2284364
:1004D00039E09F23C4F20203994225DC7023C4F261
:1004E0000203994233D088232DE040F29F43C4F2A7
:1004F000020399421FDC40F27043C4F202039942A6
:1005000025D040F288431EE04023C4F20203994202
:100510001DD0582317E040F24043C4F20203994231
:1005200015D040F258430EE0A023C4F202039942D2
:100530000DD0B82307E040F2B843C4F20203994259
:1005400005D040F2A043C4F20203994270D1914217
:100550004FF0040280F8352010DC6F22C4F2020252
:10056000914220DC3F22C4F20202914236DC10228A
:10057000C4F20202914254D028224EE040F26F426F
:10058000C4F2020291421ADC40F23F42C4F202027B
:1005900091422ADC40F21042C4F20202914240D061
:1005A00040F2284239E09F22C4F20202914225DC47
:1005B0007022C4F20202914233D088222DE040F230
:1005C0009F42C4F2020291421FDC40F27042C4F228
:1005D0000202914225D040F288421EE04022C4F23D
:1005E000020291421DD0582217E040F24042C4F26C
:1005F0000202914215D040F258420EE0A022C4F20D
:10060000020291420DD0B82207E040F2B842C4F293
:100610000202914205D040F2A042C4F2020291428D
:1006200024D10068016821F001010160002080BD33
:100630000268136823F00E03136045F25742C5F6B3
:10064000020291420A6822F001020A6014DC45F2BB
:100650002F42C5F6020291421DDC45F20842C5F662
:10066000020291422CD045F21C4225E0086820F09D
:1006700001000860002080BD45F27F42C5F60202FD
:10068000914211DC45F25842C5F60202914217D060
:1006900045F26C4210E045F23042C5F6020291424A
:1006A0000ED045F2444207E045F29442C5F60202FC
:1006B000914205D045F28042C5F6020291421AD11C
:1006C000D0E9181CD0E916E30A6822F480720A60A7
:1006D00003F01F01012202FA01F1CEF80410816E2D
:1006E000CCF80410C16E31B10A6822F480720A603D
:1006F000D0E91C124A60002180F83410012280F8F1
:100700003520026D0AB190470021084680BD0000E7
:1007100090F8350070470000B0B5044600F0FCF8D2
:1007200040F208010546C2F20041621C097818BF78
:100730000C4400BF00F0F0F8401BA042FAD3B0BD5B
:100740002DE9F04F83B00E68002E00F0C98000F153
:1007500026420A2302F1FF7240F2040C4FEAB22251
:10076000019242F20042C5F6000CC5F602024FF0BB
:10077000010B90424FF0000508BF092300274FF0FE
:10078000010800930AE000BF0E68043736FA08F249
:1007900008F1010805F1020500F0A280A8F1010AA4
:1007A0000BFA0AF216EA0209EED04E68122E17D89A
:1007B0000BFA06F414F0061F12D00323D0F808E059
:1007C000AB40CC682EEA0303AC402343836043680C
:1007D000C6F3001423EA020204FA0AF31A43426041
:1007E0000323C268AB4046F010046FEA030E9A433D
:1007F0008B68122C03FA05F342EA0302C26012D19D
:100800006FF0030207F01C0402EA5A020F260244AA
:10081000A640136AD1F810B0B3430BFA04F44FF0BA
:10082000010B2343136202684B6803F0030402EADE
:100830000E02AC40DB0042EA04020260A4D544F29E
:10084000F443C5F602031A6842F002021A601A68FD
:1008500007F00C0302F002020292029A2AF003024D
:1008600040F2084A019C009EC5F6000A092C38BFD8
:1008700026460F2452F80AE09C402EEA040406FAA9
:1008800003F3234342F80A30DCF87C204B6842EA49
:100890000906DC0358BF22EA09069C034FF0B04E5C
:1008A000CCF87C60DCF8802042EA090658BF22EAD6
:1008B0000906DC02CCF88060DEF8002042EA090676
:1008C00058BF22EA09069B02CEF80060DCF800203F
:1008D00042EA090658BF22EA0906CCF8006053E74D
:1008E00003B0BDE8F08F00000069084018BF012088
:1008F0007047000000000000002A08BF0904816161
:10090000704700000000000041F20000C5F6004002
:100910000068000C7047000040F2A410C2F20040D2
:10092000006870470000000090F84120202A03D1A1
:1009300090F84020012A01D102207047242280F83B
:1009400041200268136823F001031360136823F445
:1009500080531360136819431160116841F001015D
:100960001160202180F84110002180F840100846D5
:10097000704700000000000090F84120202A03D1B9
:1009800090F84020012A01D102207047242280F8EB
:1009900041200268136823F001031360136823F4F5
:1009A000706343EA01211160116841F00101116097
:1009B000202180F84110002180F84010084670473F
:1009C00070470000000000007047000000000000B9
:1009D00080B5D0F800C0DCF81830DCF80020D9056C
:1009E00002F0800208D53AB1416C41F00101416446
:1009F0004FF48071CCF81C10590508D53AB1416C00
:100A000041F0080141644FF48061CCF81C10990555
:100A100008D53AB1416C41F0020141644FF40071D4
:100A2000CCF81C10416C11F00B0F08BF80BD01F019
:100A3000EFFF80BD0000000080B50268436B002B13
:100A40009169126808BF80BD984780BD0000000012
:100A5000704700000000000000284CD010B504468C
:100A600090F8410028B9002084F84000204600F0AA
:100A70003FF9242084F8410094E80310E36821F052
:100A800070610268012B22F00102026001614FF4E3
:100A90000442816808BF4FF40042022B21F4004158
:100AA00081604CEA0201816002D14FF40061416033
:100AB000416804F1100C41F0007141F400414160C3
:100AC000C16821F40041C1609CE80E10114341EA65
:100AD0000321C160216A41EA0C010160016841F013
:100AE0000101016000206064202184F8411020632E
:100AF00084F8420010BD0120704700000000000093
:100B00007047000000000000704700000000000077
:100B10007047000000000000704700000000000067
:100B200070470000000000002DE9F04383B0044648
:100B300090F84100202813D1DDF82880B8F1000F8B
:100B400010D0DDF82C90B9F1000F0BD0206880692F
:100B500000040CD494F8400001280AD1022552E088
:100B6000022550E04FF40070606401254BE002253F
:100B700049E01E4617460D46012084F84000FFF765
:100B8000CBFE222184F84110402184F8421000213C
:100B900061640021C4F82480A4F82A90CFF6FF7184
:100BA000E16243F2B111C0F600016163618DFF297A
:100BB00003D94FF08078FF2102E0618D4FF000787B
:100BC00021851921CDE90010204629463A463346B1
:100BD00002F07EFB20B1002084F84000012512E0E5
:100BE00094F8282042F20040C8F20000009020460D
:100BF0002946434602F0DCFD02212046002584F808
:100C0000405001F065FE284603B0BDE8F0830000C7
:100C10002DE9F04383B0044690F84100202813D119
:100C2000DDF82880B8F1000F10D0DDF82C90B9F174
:100C3000000F0BD02068806900040CD494F84000A9
:100C400001280AD102264EE002264CE04FF4007043
:100C50006064012647E0022645E01E4617460D4621
:100C6000012084F84000FFF757FE212184F841104D
:100C7000402184F84210002161640021C4F82480DE
:100C8000A4F82A90CFF6FF71E16243F2B111C0F6E9
:100C900000016163618DFF2903D94FF08078FF2146
:100CA00002E0618D4FF0007821851921CDE9001017
:100CB000204629463A46334602F046FB20B1002042
:100CC00084F8400001260EE094F8282020462946AA
:100CD00043460026009602F06BFD0121204684F871
:100CE000406001F0F5FD304603B0BDE8F083000040
:100CF000B0B5B6B0044602A8BC210025CDE93455F4
:100D0000CDE932553195FFF737FB45F600412068B4
:100D1000C4F20001884201D036B0B0BD0820029074
:100D200002A8229500F000F908B1FFF791FB44F208
:100D3000E04431A9C5F60204206840F0800020603C
:100D4000206800F08000019001984FF4C07031904D
:100D5000122032900020CDE933000420359041F676
:100D60000040C5F60200FFF7EBFCA068002140F44C
:100D70000000A060A068002200F40000019001982B
:100D8000482000F099F8482000F092F8492000210E
:100D9000002200F091F8492000F08AF836B0B0BD8A
:100DA00070470000000000007047000000000000D5
:100DB00040F2080040F2A411C2F20040C2F2004129
:100DC00000780A68104408607047000000000000C6
:100DD00080B5032000F080F800F07EFE44F2184158
:100DE00044F23A63C5F60201C0F600030A68C2F392
:100DF0000322096801F00F019A5C595C02F01F029E
:100E0000D04040F20402C2F2004201F01F0120FA79
:100E100001F1116040F20001C2F2004108600020BF
:100E200000F00AF800281CBF012080BD00F030F857
:100E3000002080BD00000000B0B540F20801C2F201
:100E40000041097801B3044640F20000C2F20040BC
:100E50004FF47A72B2FBF1F10068B0FBF1F001F0EF
:100E6000DFFC0F2C4FF001050CD858B94FF0FF30C4
:100E700000222146002500F01FF840F20C00C2F2CB
:100E8000004004602846B0BD0120B0BD0000000055
:100E900081B044F2F440C5F60200016841F002015D
:100EA0000160006800F002000090009801B07047F7
:100EB00080B503F0FDF880BD70B514460D460646BA
:100EC00003F006F92946224602F0B2FD01463046FB
:100ED00003F006F970BD000080B503F015F980BD80
:100EE000B0B544F60C05C5F602052968490729681E
:100EF00005D401F00701081A18BF0120B0BD21F088
:100F0000070108432860FFF707FD044655F8080C61
:100F1000800407D4FFF700FD001BB0F57A7FF5D9F8
:100F20000120B0BD0020B0BD2DE9F04381B00446E2
:100F3000C07844F22C490007C5F6020901D4002606
:100F40002DE0606E4FEA305003280DD80026DFE810
:100F500000F0020E1613D9F80000002640F400300D
:100F6000C9F800004EB912E0012636B90FE0201D85
:100F7000022102F079FD06464EB1B04611E004F1BF
:100F80002400022102F000FE0646002EF5D1D9F819
:100F90002400616E20F440100843C9F824004FF08B
:100FA00000086078C0072FD0606D042807D8DFE8FC
:100FB00000F00A131B030300F6B1B04624E001263B
:100FC000002EFAD118E0D9F8000040F40030C9F83A
:100FD0000000002EF1D10FE0201D002102F044FDA1
:100FE0000646002EE9D107E004F12400002102F0BA
:100FF000CBFD0646002EE0D1D9F82400616D20F02B
:1010000007000843C9F824006078800731D5A06D37
:101010004FEAB010042807D8DFE800F00A131B03DA
:101020000300F6B1B04624E00126002EFAD118E004
:10103000D9F8000040F40030C9F80000002EF1D1CA
:101040000FE0201D002102F00FFD0646002EE9D121
:1010500007E004F12400002102F096FD0646002E70
:10106000E0D1D9F82400A16D20F4E0700843C9F85C
:1010700024006078400733D5D4F8A4004FEA7050BC
:10108000042807D8DFE800F00A131B030300F6B1B9
:10109000B04625E00126002EFAD118E0D9F800006C
:1010A00040F40030C9F80000002EF1D10FE0201DFF
:1010B000002102F0D9FC0646002EE9D107E004F138
:1010C0002400002102F060FD0646002EE0D1D9F890
:1010D0002C00D4F8A41020F460000843C9F82C00B8
:1010E0006078000733D5D4F8A8004FEA30600428B0
:1010F00007D8DFE800F00A131B030300F6B1B0467F
:1011000025E00126002EFAD118E0D9F8000040F4BD
:101110000030C9F80000002EF1D10FE0201D0021A1
:1011200002F0A2FC0646002EE9D107E004F12400FB
:10113000002102F029FD0646002EE0D1D9F82C004E
:10114000D4F8A81020F0E0600843C9F82C00E0783B
:10115000800727D5A06C4FEA3010032806D8DFE8B7
:1011600000F002091202AEB1B0461BE00126002ECB
:10117000FAD10FE0D9F8000040F40030C9F80000BF
:10118000002EF1D106E0201D022102F06DFC064682
:10119000002EE9D1D9F82000A16C20F030000843DE
:1011A000C9F820006078C00631D5E06D4FEA3030D4
:1011B000042807D8DFE800F00A131B030300F6B188
:1011C000B04624E00126002EFAD118E0D9F800003C
:1011D00040F40030C9F80000002EF1D10FE0201DCE
:1011E000002102F041FC0646002EE9D107E004F19F
:1011F0002400002102F0C8FC0646002EE0D1D9F8F8
:101200002400E16D20F4E0400843C9F82400607830
:10121000800625D5206E4FEA3040052807D8DFE844
:1012200000F0030A0F03030396B1B04618E001264D
:10123000002EFAD10CE0201D012102F015FC04E083
:1012400004F12400012102F09FFC0646002EECD19F
:10125000D9F82400216E20F4E0200843C9F82400C6
:101260006078400627D5D4F8AC004FEA30700528E6
:1012700007D8DFE800F0030A0F03030396B1B04676
:1012800019E00126002EFAD10CE0201D012102F008
:10129000EBFB04E004F12400012102F075FC06469A
:1012A000002EECD1D9F82C00D4F8AC1020F0E0409E
:1012B0000843C9F82C00607800061FD5E06ED0B155
:1012C000B0F1005F12D0B0F1805F24D1D9F80000F6
:1012D00040F40030C9F800007EB9D9F82400E16E6E
:1012E00020F040500843C9F8240007E0201D0121E8
:1012F00002F0BAFB0646002EEFD0B046E078C007F9
:1013000029D0606C03280AD8DFE800F0020D16022D
:10131000CEB1B0461FE00126002EEED1DDE701265A
:10132000002EF6D10FE0D9F8000040F40030C9F8E3
:101330000000002EEDD106E0201D022102F094FBFA
:101340000646002EE5D1D9F82000616C20F003009C
:101350000843C9F82000A078400643D5D9F8D40343
:1013600040F48070C9F8D403FFF7D6FA074600BFEF
:10137000D9F8D403C00505D4FFF7CEFAC01B652801
:10138000F6D303266EBBD9F84410D4F8B000414020
:1013900011F4407F11D0D9F84410D9F8442042F418
:1013A0008032C9F84420D9F8442021F4407122F455
:1013B0008032C9F84420C9F84410B0F5807F0FD1BD
:1013C000FFF7AAFA074641F2893500BFD9F8440071
:1013D000800705D4FFF7A0FAC01BA842F6D3032666
:1013E00086B1B0462078C00741D0A06F4FEAF00028
:1013F000052823D8DFE800F003262B03030376B388
:10140000B04634E04FF6CF73D4F8B00059F81C2C36
:10141000C0F2FF0300F4407122F47C5203EA10137F
:10142000B1F5407F08BF1A436FF31F3049F81C2CF9
:10143000D9F844100843C9F84400D3E70126002E28
:10144000DED10CE0201D012102F00EFB04E004F1CE
:101450002400012102F098FB0646002ED0D1D9F8D5
:101460002800A16F20F038000843C9F82800207830
:10147000800723D5606F052807D8DFE800F0030A4E
:101480000F03030396B1B04618E00126002EFAD1EF
:101490000CE0201D012102F0E7FA04E004F1240031
:1014A000012102F071FB0646002EECD1D9F828008C
:1014B000616F20F007000843C9F828002078400732
:1014C00025D5D4F89000052807D8DFE800F0030AF6
:1014D0000F03030396B1B04619E00126002EFAD19E
:1014E0000CE0201D012102F0BFFA04E004F1240009
:1014F000012102F049FB0646002EECD1D9F82C0060
:10150000D4F8901020F007000843C9F82C00207888
:10151000800627D5D4F88C004FEA3070052807D80C
:10152000DFE800F0030A0F03030396B1B04619E0A9
:101530000126002EFAD10CE0201D002102F094FAC1
:1015400004E004F12400022102F01EFB0646002EF6
:10155000ECD1D9F82800D4F88C1020F0E0400843F2
:10156000C9F828002078400627D5D4F898004FEA1B
:10157000B020052807D8DFE800F0030A0F030303B3
:1015800096B1B04619E00126002EFAD10CE0201DDC
:10159000002102F069FA04E004F12400022102F0C3
:1015A000F3FA0646002EECD1D9F82C00D4F89810A6
:1015B00020F4E0500843C9F82C002078000627D515
:1015C000D4F89C004FEA7030052807D8DFE800F017
:1015D000030A0F03030396B1B04619E00126002E5B
:1015E000FAD10CE0201D002102F03EFA04E004F1E3
:1015F0002400022102F0C8FA0646002EECD1D9F8E8
:101600002C00D4F89C1020F460400843C9F82C004A
:101610002078000716D5D4F88000B0F5805F08D197
:1016200004F12400022102F0AFFA002818BF4FF0A5
:101630000108D9F82800D4F8801020F4405008435D
:10164000C9F828002078C00616D5D4F89400B0F563
:10165000807F08D104F12400022102F095FA0028CD
:1016600018BF4FF00108D9F82C00D4F8941020F4DA
:1016700040700843C9F82C00A078000721D5D4F8A1
:10168000A000B0F5003F19D0B0F5803F10D0C0BB2E
:10169000201D002102F0E8F906468EB9D9F82C0089
:1016A000D4F8A01020F440300843C9F82C0008E01A
:1016B00004F12400022102F067FA0646002EEDD064
:1016C000B046A078400729D5D4F88400B0F5401F73
:1016D00021D0B0F5001F18D0B0F5801F40F0C180B8
:1016E000D9F8000040F40030C9F80000AEB9D9F8CC
:1016F0002800D4F8841020F440100843C9F82800CA
:101700000CE00126002EDBD1C8E704F12400012102
:1017100002F03AFA0646002EE9D0B046A078C0079B
:101720001FD0E06CB0F5803F10D0B0B9D9F8000000
:1017300040F40030C9F8000096B9D9F82000E16CF7
:1017400020F480300843C9F820000AE0201D02215F
:1017500002F08AF906461EB9EFE70126002EECD00A
:10176000B046E078800608D504F12400022102F09A
:101770000BFA002818BF4FF00108206881031ED41F
:10178000C10234D4C1003CD4810245D441004DD4BF
:10179000B0F1FF3F5ADD000208D5D9F82800D4F88F
:1017A000881020F440000843C9F82800B8F1000F61
:1017B00018BF4FF00108404601B0BDE8F083E16F6B
:1017C0006FF0010202EB3122022A0AD34FEA3122E2
:1017D0003AB1012A4AD1D9F8002042F40032C9F8BE
:1017E0000020002E45D04FF00108C102CAD5D9F81B
:1017F0002410226F21F000411143C9F82410C100C8
:10180000C2D559F81C1CD4F8B42021F480411143EE
:1018100049F81C1C8102B9D5D9F82410A26E21F018
:1018200080711143C9F824104100B1D559F81C1C2E
:1018300021F4004149F81C1CD4F8B81059F81C2CAC
:10184000114349F81C1CB0F1FF3FA4DCD9F820106B
:10185000226D21F040511143C9F820100002A5D596
:101860009BE70126002E7FF458AF40E70126002EAB
:10187000B9D1D9F8282022F440721143C9F82810B0
:10188000C1027FF57FAFB2E72DE9F04381B00028B8
:1018900000F0F28042F200080446C5F200288946B2
:1018A000D8F8000000F00F0088420ED2D8F80000EF
:1018B00020F00F0040EA0900C8F80000D8F8000046
:1018C00000F00F00484540F0D780206844F21847E8
:1018D0004107C5F602070AD521693A6802F070028D
:1018E000914204D93A6822F070021143396001072D
:1018F0000AD561697A6802F07002914204D97A6867
:1019000022F0700211437960C1060AD5A1697A6894
:1019100002F4E062914204D97A6822F4E062114351
:10192000796081060AD5E169BA6802F070029142D5
:1019300004D9BA6822F070021143B96081070AD550
:10194000E1683A6802F00F02914204D93A6822F045
:101950000F0211433960C0077ED1206881070AD584
:10196000E1683A6802F00F02914204D23A6822F02C
:101970000F0211433960D8F8001001F00F014945FA
:101980000DD9D8F8001021F00F0141EA0901C8F87B
:101990000010D8F8001001F00F0149456CD1410743
:1019A0000AD521693A6802F07002914204D23A687D
:1019B00022F070021143396001070AD561697A6823
:1019C00002F07002914204D27A6822F07002114350
:1019D0007960C1060AD5A1697A6802F4E062914291
:1019E00004D27A6822F4E0621143796080060AD555
:1019F000E069B96801F07001884204D2B96821F049
:101A000070010843B86000F067F8396844F23A6240
:101A1000C0F60002C1F303213B6803F00F03515CE1
:101A2000D25C01F01F01C84002F01F0140F2040225
:101A300020FA01F1C2F20042116040F2000140F2CE
:101A40000C02C2F20041C2F2004208601068FFF7C7
:101A5000F3F901B0BDE8F083386820F47061D4E98F
:101A60000102032841EA0201396009D0022829D184
:101A700057F8181C890307D4012001B0BDE8F08392
:101A800057F8181C8901F7D557F8081C21F00701F1
:101A9000084347F8080CFEF73FFF064641F2883539
:101AA00057F8080C616800F03800B0EBC10F3FF444
:101AB00054AFFEF731FF801BA842F1D9032001B0DB
:101AC000BDE8F083012857F8181C02D1C905D3D509
:101AD000DAE74907D0D5D7E744F20041C5F602015D
:101AE0000869C0F3C20003280FD002282BD078BBAE
:101AF0000868800649F20000C0F2D03058BF704735
:101B00000968C1F3C101C84070478A6A886AC0F396
:101B1000051CCB6A486B03F00103BCF1000FC0F356
:101B2000CC0003FB00F000EE100AB8EE400A14D01F
:101B300002F00302022A12D0A2B90868800614D467
:101B40009FED251A1EE047F64000C0F27D10704759
:101B500040F60010C0F23D007047002070479FED36
:101B60001D1A0FE09FED1A1A0CE0086849F20002F6
:101B7000C0F2D032C0F3C10022FA00F001EE100A28
:101B8000B8EE411A02EE10CA9FED144AB8EE422A8E
:101B9000086B6FF35F2003EE100A81EE021AB8EEB5
:101BA000433A086B00EE043AB7EE000AC0F3462051
:101BB000013033EE000A21EE000A01EE100AB8EE01
:101BC000411A80EE010ABCEEC00A10EE100A7047FE
:101BD0000024744A20BCBE4B0024744C0000003921
:101BE0002DE9F041002800F046810446007844F2D7
:101BF0000046C007C5F602064AD0306900F0380139
:101C0000B06A102905D018290AD100F00300022873
:101C100006D13068800337D56068A8BB012726E06D
:101C200065686DB1B5F5803F06D0B5F5A02F306879
:101C300007D140F480203060306840F4803006E006
:101C4000306820F480303060306820F480203060CC
:101C5000FEF762FE002D054613D000BF30688003FA
:101C600012D4FEF759FE401B6428F7D90327002041
:101C7000002800F016820BE0FEF74EFE401B6428A1
:101C8000F4D830688003F7D40120002800F00982DE
:101C90002078800755D5306910F03801B06A18D027
:101CA000182908BF5FEA807013D0E068316858B324
:101CB00021F0190108433060FEF72EFE054600BFF3
:101CC000306840070AD4FEF727FE401B0228F7D9E8
:101CD00028E03068400701D5E06868B3FEF714FEDD
:101CE00041F20301884208D820697168402821F434
:101CF0007C3119D141F4003018E07068216920F07E
:101D0000FE4040EA016011E021F001003060FEF782
:101D100003FE05463068400709D5FEF7FDFD401B70
:101D20000328F7D3032708E041EA00307060012060
:101D3000002800F0B68104E001270020002800F010
:101D4000B0812078C0065AD5306900F03801B06AF9
:101D5000082905D0182918D100F00300012814D152
:101D60003068C00502D5E069802843D1FEF7CCFD7C
:101D700041F2030188421CD8206A7168202821F0B2
:101D8000F8412FD141F080402EE0E0690028306812
:101D900017D040F080003060FEF7BEFD054600BF62
:101DA0003068C005E2D4FEF7B7FD401B0228F7D922
:101DB00016E0F068216A20F07C5040EA0160F06093
:101DC00013E020F080003060FEF7A6FD054600BF5E
:101DD0003068C00509D5FEF79FFD401B0328F7D3E7
:101DE000032708E041EA806070600120002800F0CD
:101DF000588104E001270020002800F0528120785B
:101E000000073CD4207880064DD4207840075ED46B
:101E1000656A65B3306900F03800182840F09E808C
:101E2000012DB16A306B26D001F00302A36A9A42F9
:101E300021D1C1F30511E26A91421CD10146226B06
:101E40006FF35F21013A914215D1C0F34621626BD5
:101E5000013A91420FD1C0F30641A26B013A91427F
:101E600009D1C0F30660E16B0139884203D1002734
:101E7000F8B2BDE8F0810127F8B2BDE8F0816069F1
:101E80000028706F39D040F001007067FEF744FD04
:101E9000054600BF706F8007B4D4FEF73DFD401BC0
:101EA0000228F7D925E0A0690028306844D040F422
:101EB00080503060FEF730FD054600BF306880047A
:101EC000A3D4FEF729FD401B0228F7D911E0D6F86C
:101ED000000440F48070C6F80004FEF71DFD0546BE
:101EE000D6F80004C00519D4FEF716FD401B64287F
:101EF000F6D90327F8B2BDE8F08120F00100706741
:101F0000FEF70AFD05460327706F80077FF57AAF5D
:101F1000FEF702FD401B0228F6D9C2E0A568EDB32A
:101F2000012D05D0052D306F39D140F00400306708
:101F3000306F40F0010038E020F480503060FEF750
:101F4000EBFC0546032700BF306880047FF55DAFDA
:101F5000FEF7E2FC401B0228F6D9A2E0306820F030
:101F600080703060FEF7D8FC022D05464FF0030765
:101F70000AD100BF3068800135D5FEF7CDFC401B8B
:101F80000228F7D98DE000BF306880017FF56FAF80
:101F9000FEF7C2FC401B0228F6D982E0306F20F029
:101FA00001003067306F20F004003067FEF7B4FCAA
:101FB000002D054641F288384FF003070FD000BFCF
:101FC000306F80073FF524AFFEF7A6FC401B40456D
:101FD000F6D966E0FEF7A0FC401B404561D8306FA3
:101FE0008007F7D414E704F12807B06A40F2F33110
:101FF00088438ECF0843591E40EA02104FF47E42B8
:10200000B06202EB47206FF35F214FF4FE0280B213
:10201000E36B0844A16B02EB01414FF0FE4201F477
:10202000FE0102EB0362084402F0FE410844306303
:10203000F06A4FF6F87120F00100F062706BA26C4C
:10204000884340EAC2007063F06A216C20F00C0003
:102050000843F062F06A616C20F002000843F0620D
:10206000F06A40F48030F062F06A40F40030F062D0
:10207000F06A40F48020F062F06A40F00100F06203
:10208000306840F080703060FEF746FC044603275D
:10209000306880013FF5EBAEFEF73EFC001B0228E6
:1020A000F6D9F8B2BDE8F0817047000000000000EA
:1020B0002DE9F047066804463769D6F814A00AEA05
:1020C0000705D6F8089005F0640094F8818004288C
:1020D00007D1616F20468847216F2046884701203D
:1020E00000E0002005F04501012903D1216F2046C1
:1020F0008847012005F02601022903D1616F20469F
:102100008847012008B1BDE8F08728070BD43807BD
:1021100063D51AF4006060D02068816941F40061E1
:102120008161BDE8F087206819F4404F816941F072
:1021300008018161816941F010018161816941F487
:1021400000618161016921F0080101610ED0B8F1DF
:10215000040F06D0A16FC96941B1B8F1030F00F0B7
:10216000C080E16FC969002940F0AC80806810F43C
:10217000404F1CD0204601F09FFD012084F88100D3
:10218000D4F88400002800F09D802046FFF78CFFE3
:10219000BDE8F0872068616E006B08600420616E06
:1021A00008446066B4F86A000138A4F86A00B4F81C
:1021B0006A000028DED0E0681028EBD2082805D39A
:1021C000308E616E08800220E9E700BF206890F839
:1021D0003000616E08700120E1E715F4587F92D05D
:1021E00015F040000AD02068D4F8841041F00401B2
:1021F000C4F88410816941F040018161A8050AD5C5
:102200002068D4F8841041F00101C4F88410816979
:1022100041F400718161E80505F020000AD52168CC
:10222000D4F8842042F00802C4F884208A6942F479
:1022300080728A6150B12068D4F8841041F0800126
:10224000C4F88410816941F020018161D4F88400D0
:1022500000283FF458AF206809F4404240F26B3345
:10226000B2F5404F016821F001010160016921EAE6
:10227000030101613FD1816843F6715521F440416A
:102280008160E06FC0F6000548B10565FEF7E8F82B
:1022900028B1D4F8840040F04000C4F88400A06F56
:1022A00000283FF430AF0565FEF7DAF8002808BFD4
:1022B000BDE8F087D4F8840040F04000C4F8840002
:1022C000BDE8F087B8F1030F0BD0B8F1040F0DD0C3
:1022D000B8F1050F7FF417AF204600F09DFABDE876
:1022E000F087204600F094FABDE8F087204600F021
:1022F00093F9BDE8F087012084F8810045E70000EC
:102300002DE9F041002800F0A080044643F60006C5
:10231000C4F2000643F20007256843F60048B542C0
:10232000C4F20107C4F200084FF00000A06204D01C
:10233000454518BFBD4240F08480204601F028FD8D
:10234000B54218BFBD426FD110287ED894F88100E5
:1023500028B9002084F88000204600F079F8022097
:1023600084F881002068A1690268B1F1806F22F0D1
:10237000010202600FD162682AB1B2F5800F0AD162
:10238000A36B23B13AB9A26BB2F1805F03D10268AB
:1023900042F480520260E269A36A1A43E36B13437A
:1023A000D4E90365D4E9012733438360636B666A2C
:1023B00041EA0301A36B41EA060141EA03016369B3
:1023C00041EA0501266A41EA0301E36C41EA06019C
:1023D000A66C41EA020141EA0301A36D41EA07014B
:1023E00041EA060141EA0301C1604AB9816801235B
:1023F00063F3CC2181608168022363F34A21816009
:10240000016D520221F00101016505D5C168626DBF
:1024100021F000411143C1600020C4F88400012173
:1024200084F88110BDE8F081454518BF08280CD814
:10243000B54218BFBD423FF487AF45453FF484AF76
:1024400084E7E0680F287FF678AF0120BDE8F081CF
:102450002DE9F041B6B0044602A8BC210025CDE923
:102460003455CDE932553195FDF786FF43F60041ED
:102470002068C4F20001884202D036B0BDE8F08185
:102480004FF48050029002A81995FEF74DFD08B157
:10249000FDF7DEFF44F2E0400024C5F60200C5F679
:1024A000020431AD4FF002088168002741F4004179
:1024B00081608168062601F400410191019901685B
:1024C00041F001010160016801F0010101910199F0
:1024D000016841F0040101600068294600F0040031
:1024E00001900198102031902046CDF8C880CDE9A8
:1024F00033773596FEF724F94FF4A0502946CDE9FD
:10250000310804F50060CDE933773596FEF718F908
:10251000332000210022FEF7CFFC3320FEF7C8FC59
:1025200036B0BDE8F081000080B5836894465BB9A1
:102530004268B2F5800F07D1042280F881200A4654
:10254000634600F081F880BD90F88020012A01D117
:10255000022080BD012280F8802090F88120012A8D
:1025600009D1002918BFBCF1000F09D1002180F862
:102570008010012080BD002180F88010022080BDE5
:10258000042280F881200022C0F884204166A0F84F
:1025900068C0A0F86AC0C265A0F86020A0F86220F8
:1025A000C1684267102904D343F6D951C0F600012F
:1025B0000AE0082904D343F6A951C0F6000103E05C
:1025C00043F60961C0F60001B3F5C02F016704D1DD
:1025D00001680A6822F400620A60D0E9001E4FF622
:1025E000FF72BEF5800F4B6823EA020240F2497386
:1025F00062444A600A6842F001020A600A6942EADB
:1026000003020A6103D10A6842F400720A600021E1
:1026100080F88010084680BD80B540F2181100682F
:10262000C2F200410968884218BF80BD40F218100C
:1026300040F2D801C2F20040C2F200411022FFF77E
:1026400073FF80BD00000000B0B590F88050012DF0
:1026500001D10220B0BD012580F88050D0F800E003
:1026600090F88140012C28D14FF0010C002918BFAF
:10267000002A6ED083B390F88150042D02D0052536
:1026800080F881500025C0F88450C165A0F8603002
:10269000A0F862304266A0F86830A0F86A30B0F85E
:1026A0006210C268102A1AD343F6D95243F66965FC
:1026B000C0F60002C0F6000524E04568B5F5800FBD
:1026C00007D1042C4FF0020C43D18468002CCBD0EE
:1026D0003FE04FF0020C3CE04FF0010C39E0082ADB
:1026E00008D343F6A95243F63965C0F60002C0F696
:1026F000000507E043F6096243F69965C0F600025B
:10270000C0F600050267002945674FF6FF75DEF841
:10271000042022EA05021A44CEF80420DEF8002044
:1027200042F00102CEF800200368596918BF11F089
:10273000020113D1196940F26C72114319614168A9
:10274000B1F5800F03D1196841F4007119604FF0A1
:10275000000C002180F880106046B0BD4FF6FF7578
:1027600011216A1EA5F1030C16E0C46D24681C62D9
:1027700004234FF6FF74C56D2B44C3650368B0F89E
:1027800062502C44A0F86240B0F86240002C5C69B2
:1027900018BF14F00204CDD0013934D0C568102D13
:1027A000E3D2B0F86240082D09D3022C1FD3C46BCA
:1027B000ECB1C46D24681C6204231446DBE7042CCE
:1027C00008D3C46B412C05D3C46D24681C62042358
:1027D0006446D0E7B0F86240022C0ED3C46B64B1FB
:1027E000C36D14461B88AEF820300223C3E7C36DC7
:1027F0001B88AEF820300223BBE7C46D247883F831
:1028000020400123B5E74FF0020CA2E700000000D2
:10281000704700000000000070470000000000004A
:1028200080B501F055FB80BDFEE700000000000010
:1028300080B540F28C00C2F20040FEF7C9F880BDBE
:1028400080B540F28C00C2F20040FEF7F5F880BD82
:1028500080B5806B816B00291CBF00220A65C16BAB
:1028600000291CBF00220A6500F0BAFF80BD0000ED
:10287000CA0703D100228B0714D509E090F8412044
:1028800002F02803F222282B08BF42228B0709D529
:1028900090F8413003F0280CF423BCF1280F08BF56
:1028A00044231A430B0448BF42F0B802102908BF62
:1028B00042F09002202908BF42F02002006840291F
:1028C00008BF42F040020168914301607047000078
:1028D00043F2A903426BC0F600039A4219D043F2B7
:1028E000C133C0F600039A4213D00A04B82303EAA6
:1028F000E272CB0718BF42F0F2028B07A1F1200170
:1029000048BF42F0F402B1FA81F1490942F02003D4
:1029100014E00BB2B822B3F1FF3FC8BF0022102968
:1029200008BF42F090022029A1F1400108BF42F007
:102930006002B1FA81F1490942F0400300680029C0
:1029400018BF1A460168114301607047000000007B
:1029500000688169890701D5002181628169C90701
:1029600018BF7047816941F0010181617047000023
:1029700070B5044690F8410000F02800282820682F
:102980001FD18169C1F3004583698268C168E66827
:10299000022E4FEA13461AD186EAD21313F0060F1D
:1029A00020D001F0FE064FF400412046FFF760FF03
:1029B000002084F84000204629463246FEF704F8FD
:1029C00070BD0821C161002084F8400070BD4FF443
:1029D00000412046FFF74CFF002084F8400006F03D
:1029E000FE020EE0A16C0131A164A16C022918BFA6
:1029F00070BD6FF39F220021A1640823C36184F896
:102A0000401020462946FDF7DFFF70BD00000000A2
:102A100010B5044690F841000023002284F84220BB
:102A2000CFF6FF73E362283862850228626C42EABF
:102A30000100606409D803212046FFF719FF43F223
:102A4000A9602821C0F600000BE048F203012046EF
:102A5000FFF70EFF94F8410060284FF0000002D00D
:102A6000202184F841106063216BA06BE8B121291B
:102A700018BF112919D121680A68520403D50A68C0
:102A800022F480420A60FDF743FE01281FD0A06BAC
:102A900042F65101C0F600010165002184F84010A2
:102AA000FDF7DEFCD0B1A06B28E0E06B98B12229E5
:102AB00018BF12290FD121680A68120403D50A68C9
:102AC00022F400420A60FDF723FE012807D12046C8
:102AD00000F086FE10BD204600F082FE10BDE06BC7
:102AE00042F65101C0F600010165002184F8401052
:102AF000FDF7B6FC002808BF10BDE06B016D8847EC
:102B000010BD000000000000B0B504460022CFF662
:102B1000FF72C26200250563202084F84100480747
:102B200084F84250656311D52068616A406A087074
:102B3000208D616A0131616240B101382085608D6C
:102B400001386085606C40F00400606448F2030165
:102B50002046FFF78DFE20681021C161204684F8D1
:102B60004050FDF7CDFFB0BD70B582B0044600689F
:102B700020220D46C26194F84100212802D111267D
:102B8000012105E094F84100222805D112260221F6
:102B90002046FFF76DFE266320684EF60002CFF652
:102BA0000062416811404160002161630021EA0632
:102BB000CFF6FF71E16205D51021C161616C41F072
:102BC0000401616494F841106A0705D5602903D1B6
:102BD000406AC0B2019001982046FFF7B9FE616CCF
:102BE00094F84100B9B9602815D094F84100212823
:102BF00017D1202084F841000020206394F842106F
:102C000084F8420084F84000204640291FD1FDF797
:102C100087FF02B070BD616C2046FFF7F9FE02B07D
:102C200070BD94F84100222817D1202084F841007B
:102C30000020206394F8421084F8420084F8400099
:102C40002046402907D1FDF767FF02B070BDFDF7B0
:102C50005FFF02B070BDFDF757FF02B070BD00000E
:102C6000B0B5002580F84250044690F84100212874
:102C70004FF0200084F841000CD111202063012185
:102C800020466563FFF7F4FD204684F84050FDF7C9
:102C90003FFFB0BD12202063022120466563FFF78D
:102CA000E7FD204684F84050FDF72EFFB0BD000040
:102CB000F0B581B0044600680D462021066894F8FE
:102CC0004120C161213A092A10D8212748F2010088
:102CD000DFE802F007050C0C0C0C0C0C07050130AA
:102CE000222781B22046FFF7C3FD276320684EF6F6
:102CF0000002CFF60062416841F400414160416842
:102D0000114041602046FFF723FE700425D43004B3
:102D100040F1F3802168E06B00280A6822F4004249
:102D20000A6000F0EA8040F20F410068C4F202013C
:102D3000884249DC6F21C4F20201884275DC3F21E0
:102D4000C4F20201884200F3B0801021C4F20201F3
:102D5000884200F0CD802821C6E02168A06B0A6877
:102D6000002822F480420A6000F0C78040F20F4140
:102D70000068C4F20201884211DC6F21C4F2020132
:102D8000884237DC3F21C4F20201884259DC10211D
:102D9000C4F20201884200F0868028217FE040F2E0
:102DA0006F41C4F20201884230DC40F23F41C4F27C
:102DB000020188424CDC40F21041C4F20201884218
:102DC00071D040F228416AE040F26F41C4F2020142
:102DD000884246DC40F23F41C4F2020188426BDC8B
:102DE00040F21041C4F20201884200F0818040F2BA
:102DF000284179E09F21C4F20201884240DC702121
:102E0000C4F2020188424ED0882148E040F29F413E
:102E1000C4F2020188423ADC40F27041C4F202017D
:102E2000884240D040F2884139E09F21C4F202013B
:102E300088424ADC7021C4F20201884258D08821BD
:102E400052E04021C4F2020188422CD0582126E0F1
:102E500040F24041C4F20201884224D040F258417D
:102E60001DE040F29F41C4F20201884234DC40F28E
:102E70007041C4F2020188423AD040F2884133E006
:102E8000A021C4F2020188420DD0B82107E040F22F
:102E9000B841C4F20201884205D040F2A041C4F218
:102EA0000201884226D1A06B23E04021C4F2020136
:102EB00088421DD0582117E040F24041C4F202017F
:102EC000884215D040F258410EE0A021C4F2020120
:102ED00088420DD0B82107E040F2B841C4F20201A7
:102EE000884205D040F2A041C4F20201884201D1DB
:102EF000E06B006804300068608568070FD52068C3
:102F0000616A25F00405406A0870208D616A01310C
:102F1000616220B101382085608D01386085608D47
:102F200018B1606C40F004006064002084F8420036
:102F30006063606C68B1616C2046FFF769FD94F8CE
:102F4000410028282ED120462946FFF7DDFD01B09B
:102F5000F0BDE06A10F5803F0FD194F841002021C8
:102F600084F84110002122282046216384F8401073
:102F700016D1FDF715FF01B0F0BD00252046CFF6B4
:102F8000FF7500F011F8E562202084F84100002070
:102F9000206384F840002046FDF7B2FD01B0F0BD8B
:102FA000FDF702FF01B0F0BD10B5044600680168EE
:102FB0004A044FF0000284F8422004D4090407D5E3
:102FC0006FF4004101E06FF480410268114001603C
:102FD00094F8410029280FD1282084F841002120AD
:102FE000206301212046FFF743FC002084F84000C5
:102FF0002046FDF7D9FE10BD94F841002A2818BFDD
:1030000010BD282084F841002220206302212046A0
:10301000FFF72EFC002084F840002046FDF7C0FE9C
:1030200010BD000000000000F0B581B0044600684B
:103030008069C00602D4002001B0F0BD20680E46B1
:103040008169890611D41546771C03E020688169DF
:1030500089060AD4002FF9D0FDF75EFC4FF020015D
:103060009EB1401BB042F1D90FE01021C161202177
:10307000C1612046FFF76CFC20684EF60002CFF6D7
:1030800000624168114041600421606C0843606443
:10309000202084F84100002084F8420084F8400099
:1030A000012001B0F0BD000010B582B0044690F8D8
:1030B0004000012802D1022002B010BD02EA010046
:1030C000C3064FF0010384F8403018D40B0629D50D
:1030D00012F0400226D02068016821F04001016012
:1030E000618D0029416834D0608D6FF39F21B0F568
:1030F000807F39D3FF2020854FF080733EE0206829
:103100001021C1612021606C40F004006064204601
:10311000FFF7DEFB2046FFF71BFC002084F8400091
:1031200002B010BD420605D48006F6D52046FFF752
:103130001BFDF2E7608D90B9206841688901ECD4ED
:10314000E16A11F5803F06D1416841F48041416058
:10315000E3E7880103D42046FFF782FDDDE7402145
:103160002046FFF755FCD8E7608D2085E06A10F512
:10317000803F02D14FF0007300E0E36A94F828200A
:1031800000200090204600F013FB208D618D081A6E
:10319000608594F8411020682229016803D141F428
:1031A00000410160B9E741F480410160B5E70000EA
:1031B00070B582B0044690F84000012802D1022088
:1031C00002B070BD02EA010016460D46C1064FF07E
:1031D000010184F8401015D441071ED4810726D47C
:1031E00029063DD516F040013AD0608D10B1208DF2
:1031F00000283ED020684068800135D42046FFF783
:103200002FFD20E020681021C161606C40F00400B7
:1032100060642046FFF79CFB15E02068616A25F09A
:103220000405406A0870218D606A013005E0606A1B
:10323000216810F8012B8A62218D6062481E20856A
:10324000608D0138608506EA0500800603D52046BA
:103250002946FFF789FC002084F8400002B070BDC9
:103260004006F0D5608D90B140212046FFF7D0FB9D
:10327000E9E720684168608D6FF39F21B0F5807F9A
:1032800012D3FF202085FF224FF0807318E02068C2
:1032900041688901D7D4E16A11F5803FAED1416818
:1032A00041F480414160CEE7608D2085E26A12F5ED
:1032B000803F03D1C2B24FF0007301E0E36AC2B2B3
:1032C00000200090204600F073FABCE700000000E8
:1032D0002DE9F04182B0044642F200001D46174637
:1032E000C8F200000090DAB200232046DDE9086849
:1032F00000F05EFA20463146424600F0C9FA18B1A5
:10330000012002B0BDE8F081012D09D02068390A02
:10331000424681622046314600F0BAFA0028EFD1D9
:1033200020680022F9B23346816240212046CDF860
:10333000008000F06DFA002818BF012002B0BDE83F
:10334000F0810000000000002DE9F04182B0044649
:1033500042F200001D461746C8F200000090DAB2A3
:103360004FF080732046DDE9086800F021FA20461E
:103370003146424600F08CFA18B1012002B0BDE897
:10338000F081012D09D02068390A42468162204629
:10339000314600F07DFA0028EFD120680022F9B212
:1033A0003346816280212046CDF8008000F030FA5B
:1033B000002818BF012002B0BDE8F0810000000025
:1033C0002DE9F0410446D0F82C8090F84000012807
:1033D00002D10220BDE8F08102EA010716460D463F
:1033E000B8064FF0010084F8400003D52046294676
:1033F000FFF75EFCF80606D4380740F13981204615
:10340000FFF7B6FA34E116F4404F20D040F20F41F6
:1034100006F4804230044FF00000C4F2020174D57B
:10342000E36B002B71D01868884214DC6F23C4F260
:103430000203984224DC3F23C4F2020398423ADCA0
:103440001023C4F20203984258D0282352E0206887
:103450001021C1610CE140F26F43C4F202039842B3
:103460001ADC40F23F43C4F2020398422ADC40F2E5
:103470001043C4F20203984240D040F2284339E09E
:103480009F23C4F20203984225DC7023C4F2020396
:10349000984233D088232DE040F29F43C4F20203C8
:1034A00098421FDC40F27043C4F20203984225D0D8
:1034B00040F288431EE04023C4F2020398421DD02C
:1034C000582317E040F24043C4F20203984215D05B
:1034D00040F258430EE0A023C4F2020398420DD0FC
:1034E000B82307E040F2B843C4F20203984205D083
:1034F00040F2A043C4F20203984201D1E06B00689D
:1035000004300068B0FA80F04009002A70D0A26B45
:10351000002A6DD012688A4210DC6F21C4F20201C9
:103520008A4220DC3F21C4F202018A4236DC1021AB
:10353000C4F202018A4254D028214EE040F26F4189
:10354000C4F202018A421ADC40F23F41C4F2020195
:103550008A422ADC40F21041C4F202018A4240D081
:1035600040F2284139E09F21C4F202018A4225DC61
:103570007021C4F202018A4233D088212DE040F24A
:103580009F41C4F202018A421FDC40F27041C4F242
:1035900002018A4225D040F288411EE04021C4F257
:1035A00002018A421DD0582117E040F24041C4F286
:1035B00002018A4215D040F258410EE0A021C4F227
:1035C00002018A420DD0B82107E040F2B841C4F2AE
:1035D00002018A4205D040F2A041C4F202018A42AF
:1035E0004BD1A16B096804310968002908BF01208B
:1035F000C0B194F84100B8F1007F08BF282833D04B
:1036000094F8410018F5803F21684FF01002CA611C
:103610002ED029282CD12046FFF79AF92046FFF713
:10362000C3FC25E020681021C1616FF08071606CDF
:1036300018EA010F40F00400606494F8410017D1CB
:103640002138C1B209290AD840F2033222FA01F125
:10365000C90704D040B20AA151F820002063616C70
:103660002046FFF7D5F903E020462946FFF74CFA3C
:10367000002084F84000BDE8F081111DB4E700BFD0
:1036800021000000220000002100000021000000B5
:1036900021000000210000002100000021000000A6
:1036A0002100000022000000F0B581B00446C66A87
:1036B00090F84000012802D1022001B0F0BD02EADA
:1036C00001070D46B8064FF0010084F8400003D50D
:1036D00020462946FFF7ECFAF80615D4780725D4DA
:1036E000380751D4B80757D5608D002859D0606A83
:1036F000216810F8012B8A626062608D0138608554
:10370000208D0138208547E0608D20B3206810218E
:10371000C1616FF080700642606C40F0040060642C
:103720003AD1616C2046FFF773F935E0608D60B1E6
:103730002068616A406A0870218D606A01306062A9
:10374000481E2085608D01386085608D16F5803FAC
:1037500022D0A8B120E094F84100B6F1007F08BF64
:10376000282815D094F8410016F5803F21684FF0C5
:103770001002CA6110D029280ED12046FFF7E8F8C0
:103780002046FFF711FC07E02046FFF7F1F803E0C1
:1037900020462946FFF7B8F9002084F8400001B020
:1037A000F0BD6FF080700642F6D1E9E7000000003E
:1037B00080B50068DDF808C06FF39F21D0F804E001
:1037C000194349F6004341EA02412EEA5C5ECFF616
:1037D00000430EEA030241EA0C011143416080BD3F
:1037E00080B590F84110602909D1202180F841105E
:1037F0000021016380F84010FDF7E2F880BD002150
:10380000016380F84010FDF723F980BD000000003F
:103810002DE9F04381B08146006880690840401A74
:10382000B0FA80F0400990422BD10D4616461F4653
:10383000DDF820805C1C09E0D9F800008069284090
:10384000401BB0FA80F04009B0421AD1002CF3D0EE
:10385000FDF762F81FB1A0EB0800B842ECD9D9F827
:10386000440040F02000C9F84400202089F84100BD
:10387000002089F8420089F84000012001B0BDE82D
:10388000F083002001B0BDE8F083000000000000DC
:10389000F0B581B0044600688069800725D41546DC
:1038A0000E464F1C04E000BF2068806980071CD4CE
:1038B000204631462A46FFF7B7FB98B9002FF3D0D0
:1038C000FDF72AF816B1401BB042EDD9606C40F00C
:1038D00020006064202084F84100002084F8420029
:1038E00084F84000012001B0F0BD002001B0F0BD1F
:1038F00080B586B044F2E0410020C5F60201059093
:10390000CDE90300CDE901000A6842F080020A60B7
:103910000A6802F080020092009A0A6842F00102EE
:103920000A600A6802F001020092009A0A6842F0F6
:1039300004020A60096801F0040100910099202145
:10394000CDE9011003900020C5F6020001A9FCF7A3
:10395000F7FE06B080BD000080B540F28C0045F651
:103960000041C2F200404EF6FF42C4F20001C1F233
:10397000C002C0E90012002181600122C0E90321D8
:10398000C0E90511C0E90711FDF766F808B1FCF7B9
:103990005FFD40F28C000021C2F20040FCF7C4FF42
:1039A00008B1FCF755FD40F28C000021C2F2004046
:1039B000FCF7E2FF002808BF80BDFCF749FD80BD91
:1039C00080B540F2181043F60041C2F20040C4F244
:1039D00000014FF4802201600021416082601F22BB
:1039E000C2604FF0007202614FF08072C0E90521A1
:1039F000C0E90811C0E90A11C0E90D11C0E90F11B1
:103A00004164072282647022C0E91321C0E91511C4
:103A1000FEF776FC002808BF80BDFCF719FD80BDCD
:103A2000FEE7000000000000FEE7000000000000CC
:103A300000F007004FF0FF3C80F00703042B28BF85
:103A40000423033838BF00200CFA03F399430CFA1F
:103A500000F301FA00F022EA030108437047000076
:103A60007047000000000000F0B581B044F22C4720
:103A7000C5F6020757F8042C02F00302032A02D10C
:103A8000012001B0F0BD054657F82C0C0C4620F083
:103A9000806047F82C0CFCF73FFF064657F82C0CCB
:103AA000000105D5FCF738FF801B0228F6D964E039
:103AB00057F8040CEE6895E80E0020F47C3040EADC
:103AC0000130A2F101014FF47E4247F8040C02EBF1
:103AD00043224FF0FE436FF35F2192B202EB0100ED
:103AE0004FF4FE012A6901EB064101F4FE0103EBEC
:103AF0000262084402F0FE410844F86038686969CF
:103B000020F0C00040EA010038603868A96920F060
:103B1000200040EA0100386038684FF6F87120F064
:103B2000100038603869EA6920EA010040EAC20002
:103B30003861386840F0100038602CB1012C3868CA
:103B400006D140F4801005E0386840F4002001E020
:103B500040F40010386057F82C0C40F0806047F8B3
:103B60002C0CFCF7D9FE044657F82C0C000107D4A6
:103B7000FCF7D2FE001B0328F6D3032001B0F0BDF2
:103B8000002001B0F0BD0000F0B581B044F22C4738
:103B9000C5F6020757F8042C02F00302032A02D1EB
:103BA000012001B0F0BD054657F82C0C0C4620F062
:103BB000805047F82C0CFCF7AFFE064657F82C0C4B
:103BC000800005D5FCF7A8FE801B0228F6D964E02A
:103BD00057F8040CEE6895E80E0020F07C7040EA7F
:103BE0000150A2F101014FF47E4247F8040C02EBB0
:103BF00043224FF0FE436FF35F2192B202EB0100CC
:103C00004FF4FE012A6901EB064101F4FE0103EBCA
:103C10000262084402F0FE4108447861386869692C
:103C200020F4406040EA010038603868A96920F457
:103C3000007040EA0100386038684FF6F87120F4EF
:103C400080703860B869EA6920EA010040EAC20081
:103C5000B861386840F4807038602CB1012C386845
:103C600006D140F4000005E0386840F4800001E02F
:103C700040F08070386057F82C0C40F0805047F8C6
:103C80002C0CFCF749FE044657F82C0C800007D496
:103C9000FCF742FE001B0328F6D3032001B0F0BD61
:103CA000002001B0F0BD000080B540F21810C2F253
:103CB0000040FEF7FDF980BD016840F26F32D1F897
:103CC00014C08B6943F008038B618B6943F01003C8
:103CD0008B610B6823F001030B600B6923EA02027E
:103CE0000A618A6822F440428A6090F881305FEA73
:103CF0008C620BD5042B09D0D0F8842042F08002CE
:103D0000C0F884208A6942F020028A6190F88130EC
:103D10005FEA4C620BD5032B09D0D0F8842042F027
:103D20000402C0F884208A6942F040028A615FEA96
:103D30008C5209D5D0F8842042F00102C0F88420CA
:103D40008A6942F400728A615FEACC5209D5D0F8E0
:103D5000842042F00802C0F884208A6942F480720C
:103D60008A610021A0F86210A0F86A107047000074
:103D700080B5806B0021A0F86A10A0F862100121C4
:103D800080F88110FEF790F980BD0000000000006F
:103D9000C16B0122C068083002EB5111C0084843D2
:103DA00070470000000000000168426E0B8E22F890
:103DB000023B4266B0F86A20013AA0F86A20B0F8E7
:103DC0006A00002818BF7047086920F001000861E8
:103DD00070470000000000000168426E0B6B42F863
:103DE000043B4266B0F86A20013AA0F86A20B0F8B5
:103DF0006A00002818BF7047086920F001000861B8
:103E00007047000000000000016891F83010426E19
:103E10001170416E01314166B0F86A100139A0F8A5
:103E20006A10B0F86A10002918BF7047006801696D
:103E300021F0010101617047C26D016832F8023B57
:103E40000B84C265B0F86220013AA0F86220B0F895
:103E50006200002818BF7047086920F0020008615E
:103E600070470000000000000168C26D52F8043B7A
:103E70000B62C265B0F86220013AA0F86220B0F887
:103E80006200002818BF7047086920F0020008612E
:103E90007047000000000000C16D0268097882F8D8
:103EA0002010C16D0131C165B0F862100139A0F870
:103EB0006210B0F86210002918BF704700680169ED
:103EC00021F002010161704770470000000000000E
:103ED000B0B501380024B4EB106F01D00120B0BDA3
:103EE0004EF210050F21CEF2000568604FF0FF3052
:103EF00000F0F6F8AC60072028602046B0BD000056
:103F000080B5FCF755FF80BDB0B59CB044F61804F1
:103F100009A84C21C5F60204FCF72EFA0220002560
:103F2000CDE90755CDE90555CDE90355CDE9015555
:103F3000FCF7D6FF40F22C400095C5F60000016862
:103F400021F001010160006800F00100009020688C
:103F500040F440402060206800F440400090009809
:103F600020688004FCD5012009904FF480300A902D
:103F700002200421CDE9120014918022CDE9152000
:103F8000CDE917100C20199009A80024CDE91A4496
:103F9000FDF726FEA8B93F20019003204FF4806171
:103FA000CDE90204082004904020CDE90500CDE9C8
:103FB000071001A80221FDF767FC002804BF1CB010
:103FC000B0BDFCF745FA000080B54EF6885C42F2C1
:103FD000000ECEF2000CC5F2002EDCF8001041F409
:103FE0007001CCF80010DEF8001001F00F01062976
:103FF00006D8DEF80010072262F30301CEF80010A5
:1040000044F200414EF67F53C5F60201CEF6F62388
:104010000A6842F001020A6000220A61086818403A
:104020000860DEF80000000706D5DEF80000072370
:1040300063F30300CEF8000040F200208A61CA61F9
:10404000C0F202200A6288620020C0F2FF10C8623B
:1040500040F28020C0F2011008634A638863CA639B
:1040600008644A64086820F48020086041F2000077
:104070000A66C5F600400068B2EB507F05D148F2F1
:1040800008100121C5F20010016044F2000043F263
:10409000D201C5F2002001604FF000604CF8800CA6
:1040A00080BD000000000000FEE7000000000000EE
:1040B000002848BF704700F01F01012202FA01F1F9
:1040C0004EF200124009CEF2000242F82010704772
:1040D0004EF60C50CEF200000068C0F3022070478C
:1040E0004EF6145300F00F02CEF20003B0F1FF3F82
:1040F0001A4400F16043C8BF03F564420801107020
:1041000070470000000000004EF60C514FF6FF0310
:10411000CEF200010A681A4060F30A2242F0806081
:1041200040F0FD700860704780B582B00120ADF8A6
:1041300006000DF106014EF22820022200F094F94B
:1041400040F28801C2F20041087002B080BD000058
:10415000B0B582B04EF218600DF10705EE300521C2
:1041600084B28DF8071000BF01222046294600F0D6
:104170007BF90128F8D101AC4EF2186002222146E9
:1041800000F026F90128F7D1BDF8040001AC40F099
:104190004000ADF8040000BF4EF218600222214634
:1041A00000F062F90128F7D102B0B0BD00000000B4
:1041B00010B582B00DF106044EF2106002222146C5
:1041C00000F006F9BDF806000222214620F46060E6
:1041D000ADF806004EF2106000F046F902B010BDD6
:1041E00080B54FF487400021042200F03DF944F2ED
:1041F00083300021042200F037F944F28630002198
:10420000042200F031F944F289300021042200F048
:104210002BF944F289300021042200F025F944F200
:1042200089300021042200F01FF980BD0000000049
:1042300080B54FF46440042200F0CAF84EF2014009
:10424000042200F0C5F84EF20240042200F0C0F84B
:104250004EF20340042200F0BBF84EF20440042268
:1042600000F0B6F84EF20540042200F0B1F84EF22C
:104270000640042200F0ACF84EF20740042200F0A1
:10428000A7F84EF20840042200F0A2F84EF20940CE
:10429000042200F09DF84EF20A40042200F098F843
:1042A0004EF20B40042200F093F84EF20C40042230
:1042B00000F08EF84EF20D40042200F089F84EF224
:1042C0000E40042200F084F880BD000000000000D1
:1042D000B0B582B00025C5F6020500BF20212846F2
:1042E000FCF702FB18B10120FCF716FAF6E71021E3
:1042F000012228460124FCF7FFFA01A94EF20350DF
:10430000042200F065F8C0B19DF80500000601D454
:10431000002430E04FF0FF30019001A94EF203502D
:10432000042200F0A1F800BF20212846FCF7DCFAA7
:1043300018B10120FCF7F0F9F6E70DF103014FF495
:104340006A4001228DF8034000F08EF8FFF700FF6D
:10435000FFF746FFFFF7E8FEFFF76AFFFFF728FFCA
:1043600040F2181040F2D801C2F20040C2F20041FF
:104370001022FEF7D9F8204602B0B0BD00000000C0
:1043800080B582B0844640F28C000091C2F20040B9
:104390007021022301926246FCF7C6FB0120FCF764
:1043A000BBF902B080BD000080B582B0844640F207
:1043B0008C000091C2F200407021022301926246FB
:1043C000FCF726FC0120FCF7A7F902B080BD000035
:1043D0002DE9F04182B014460F460646FFF7D0FFA4
:1043E000E5B23846294600F09BF80DF107014EF67C
:1043F00001200122FFF7C4FF9DF80700352819D1DD
:1044000001AF4EF6FE10022239464EF6FE18FFF7B7
:10441000B7FF0221384600F083F8BDF80400B0422F
:1044200008D1012C0AD0042C0DD0022C12D108F195
:1044300001000AE0002002B0BDE8F0816FF4D05026
:1044400000F5FF7001E04EF2FF5080B2694622464F
:10445000FFF796FF6846294600F062F8012002B097
:10446000BDE8F081000000002DE9F04F03AF81B0FE
:104470005FFA82F80C46064608464146154600F0AB
:104480004FF8304621462A46FFF78EFFA7F10D016F
:104490004EF601200122FFF773FF17F80D0CCA2812
:1044A00021D1A7F110044EF6FE10022221464EF64D
:1044B000FE19FFF765FF0221204600F031F837F8BA
:1044C000100CB04211D1E81D6C4620F00700ADEB96
:1044D0000006B546012D0AD0042D0DD0022D12D1B3
:1044E00009F101000AE0002013E0002011E06FF460
:1044F000D05000F5FF7001E04EF2FF5080B231461F
:104500002A46FFF73DFF3046414600F009F80120FA
:10451000A546A7F10C04A546BDE8F08F00000000F9
:10452000D0B502AFCA1D22F00702ADEB020CE54682
:1045300061B1ACF1010E0A468318013A13F8013C4F
:104540000EF8013FF8D1024411B90BE0421849B10D
:10455000ACF10100013A00BF10F8013F013902F847
:10456000013FF9D1A7F10804A546D0BD0000000025
:10457000FCF72EFCFFF7C8FCFFF7BAF9FFF720FAAB
:10458000FFF7EAF9FFF7A4FE40F2A01640F2740824
:10459000C2F2004640F2700940F27C0A40F278070D
:1045A00040F2840440F28005C2F20048C2F20049A1
:1045B000C2F2004AC2F20047C2F20044C2F2004511
:1045C000307002E06420FCF7A7F830780028F9D0BA
:1045D00044F2C13004224146FFF7FAFE44F2C230F1
:1045E00004224946FFF7F4FE44F2C4300422514647
:1045F000FFF7EEFE44F2C53004223946FFF7E8FE2D
:1046000044F2C73004222146FFF7E2FE44F2C830EC
:1046100004222946FFF7DCFE6420FCF77DF8D1E791
:10462000F1EE100A4FF6FF71C0F2C03120EA01002E
:1046300040F04070E1EE100A7047000000000102F7
:10464000030401020304060708090000704600087D
:104650000000002410000000D4020008804600087A
:104660001000002498070000F0020008000000007D
:104670000090D0030090D003010000001000000063
:040000050800029954
:00000001FF
